:020000040800F2
:10000000680B002091010008691E00085B1C0008B5
:10001000651E000871060008D524000800000000D5
:100020000000000000000000000000008522000821
:1000300075060008000000005B220008DD220008B1
:10004000AB010008AB010008AB010008AB010008E0
:10005000AB010008AB010008AB010008AB010008D0
:10006000AB010008AB010008AB010008AB010008C0
:10007000AB010008AB010008AB010008AB010008B0
:10008000AB010008AB010008AB010008AB010008A0
:10009000AB010008AB010008AB010008AB01000890
:1000A000AB010008AB010008AB010008AB01000880
:1000B000AB010008AB010008AB010008AB01000870
:1000C000AB010008AB010008AB010008AB01000860
:1000D000AB010008AB010008AB010008AB01000850
:1000E000AB010008AB010008AB01000800F002F80A
:1000F00000F03FF80AA090E8000C82448344AAF183
:100100000107DA4501D100F034F8AFF2090EBAE880
:100110000F0013F0010F18BFFB1A43F0010318473B
:100120003843000058430000103A24BF78C878C113
:10013000FAD8520724BF30C830C144BF04680C60ED
:10014000704700000023002400250026103A28BF35
:1001500078C1FBD8520728BF30C148BF0B60704739
:10016000642900F07180002070471FB51FBD10B5D5
:1001700010BD00F0D1F91146FFF7F7FF02F0D0F9FA
:1001800000F0EFF903B4FFF7F2FF03BC00F0F2F95F
:100190000948804709480047FEE7FEE7FEE7FEE71B
:1001A000FEE7FEE7FEE7FEE7FEE7FEE70448054957
:1001B000054A064B7047000069230008ED0000085F
:1001C00068050020680B00206807002068070020F1
:1001D0000FB41CB5074B06AA7B44694600900598EE
:1001E00000F07DF90020694600F08CF91CBC5DF838
:1001F00014FB00002903000070B5044685690068FF
:10020000C10601D5302600E02026C00707D070BD0A
:10021000D4E9012130469047206A401C20626D1EBF
:10022000F6D570BD70B5044685690078C00707D162
:1002300070BDD4E9012120209047206A401C206233
:100240006D1EF6D570BD00002DE9F0410646002474
:1002500010687529314616A510D0AFF3008000282C
:1002600002DA404213A507E031688A0701D512A5DA
:1002700002E0490704D511A5012401E0AFF3008095
:1002800000210A2206F1240709E0B0FBF2FCB0FBD2
:10029000F2F302FB1C00303078541846491C002849
:1002A000F3D123462A463046BDE8F04100F0B9B804
:1002B000000000002D0000002B00000020000000C6
:1002C0002DE9F0474FF0000A89460446C0F820A007
:1002D0002046E1688847002876D0252806D0D4E952
:1002E00001219047206A401C2062F1E7E168204626
:1002F00000258847C4F81CA006460027C4F818A0AB
:100300002A2E09D0304602F003F938B304EB8708EF
:10031000303EC8F8186019E059F8041B204604EB79
:1003200087029161E1688847012F064618D1E0698C
:10033000002820DA25F020051DE0D8F8180000EB91
:10034000800006EB40003038C8F818002046E1680D
:100350008847064602F0DCF80028EED1012F0AD0CB
:100360002E2E08D12046E16888477F1C0646022FC2
:1003700045F02005C4DBA069002803DA404245F0BF
:100380000105A061E80701D025F01005B6B1A6F17E
:100390004100192802D8203645F400654A46314606
:1003A000204625604D46FFF7DBFE58B1012806D0F8
:1003B000ED1D25F0070000F1080989E704E005F1CB
:1003C000040985E730468AE7206ABDE8F0874FF0E8
:1003D000000200B5134694469646203922BFA0E895
:1003E0000C50A0E80C50B1F12001BFF4F7AF0907A1
:1003F00028BFA0E80C5048BF0CC05DF804EB890092
:1004000028BF40F8042B08BF704748BF20F8022BD4
:1004100011F0804F18BF00F8012B704770477047EC
:1004200070472DE9F0470D4699469246044600F183
:1004300024080168880604D5E06921F010012160D4
:1004400000E00120A84201DD471B00E00027A16970
:100450007A1902EB0900081AA0612078C00602D4BC
:100460002046FFF7C9FE002608E0D4E901211AF86A
:1004700006009047206A401C761C20624E45F4DB43
:100480002078C0060AD52046FFF7B6FE06E0D4E97C
:10049000012130209047206A401C2062381EA7F1BD
:1004A0000107F4DC07E0D4E9012118F805009047C2
:1004B000206A401C2062281EA5F10105F3DC2046BD
:1004C000FFF7B0FE2078000602D50220BDE8F087D5
:1004D0000120FBE701694A1C02610878704700B5FA
:1004E0008FB0CDE901310021059105497944CDE96D
:1004F000031011466846FFF7E3FE0FB000BD000091
:10050000E5FFFFFF0A6802F8010B0A607047000070
:1005100000487047040500207546FFF7F9FFAE4616
:1005200005006946534620F00700854618B020B5FF
:10053000FFF73CFEBDE820404FF000064FF00007FB
:100540004FF000084FF0000B21F00701AC46ACE87B
:10055000C009ACE8C009ACE8C009ACE8C0098D46E8
:10056000704710B50446AFF300802046BDE8104048
:10057000FFF708BE01491820ABBEFEE726000200C7
:10058000704770B5044600252068806800F00100BF
:1005900018B32068806820F001002168886000F0AE
:1005A00009FD054613E000F005FD401B02280ED9A9
:1005B0002068806800F0010048B1A06A40F0100097
:1005C000A062E06A40F00100E062012070BD206896
:1005D000806800F001000028E5D10020F6E7000067
:1005E00038B504460025002000902068806800F09F
:1005F000010078BB2068806840F0010021688860B5
:10060000194800681949B0FBF1F0009002E0009829
:10061000401E009000980028F9D100F0CBFC054660
:1006200019E000F0C7FC401B022814D9206880683C
:1006300000F0010078B9A06A40F01000A062E06A02
:1006400040F00100E06200BF002084F8240000BFF9
:10065000012038BD05E02068806800F00100002816
:10066000DFD00020F5E700000C00002040420F0022
:1006700000BFFEE7704772B600BFFEE738B502461E
:1006800000230020009000BF92F82400012801D12F
:10069000022038BD012082F8240000BF48680728E6
:1006A00012D21068406B0C79641E04EB84051F2481
:1006B000AC40A0430D796D1E05EB85050C68AC4080
:1006C00020431468606327E048680D2812D2106840
:1006D000006B0C79E41F04EB84051F24AC40A0439D
:1006E0000D79ED1F05EB85050C68AC4020431468BF
:1006F000206311E01068C06A0C790D3C04EB84059E
:100700001F24AC40A0430D790D3D05EB85050C6819
:10071000AC4020431468E06208680A2812D31068CD
:10072000C0680C780A3C04EB44050724AC40A043A5
:100730000D780A3D05EB45058C68AC4020431468F4
:10074000E0600FE0106800690C7804EB44050724B2
:10075000AC40A0430D7805EB45058C68AC402043C8
:10076000146820610868102802D00868112827D171
:10077000174C1068A0421ED11068806800F4000079
:10078000F0B91068806840F400001468A060086840
:10079000102815D10F4800680F4CB0FBF4F000EBA7
:1007A00080004000009002E00098401E00900098F9
:1007B0000028F9D104E0906A40F020009062012303
:1007C00000BF002082F8240000BF184661E7000047
:1007D000002401400C00002040420F000146886ABE
:1007E000704701460868C06C704700002DE9F04171
:1007F0000446002700250026A84614B90120BDE8BC
:10080000F081A06810B1207D00B100BFA06A30B9AE
:100810000020E06284F82400204600F089F8204699
:10082000FFF7AFFE0746A06A00F01000002873D162
:10083000002F71D1A06A20F4885040F00200A0621D
:10084000E16960680843217B40EA41000643A068F3
:10085000B0F5807F02D0A068012802D14FF48070EB
:1008600000E000200543207D012811D1207B38B90C
:10087000A069401E4FF4006141EA4030054307E0A3
:10088000A06A40F02000A062E06A40F00100E0624F
:100890002068406820F46940284321684860206847
:1008A000806821490840304321688860A068B0F51D
:1008B000807F02D0A068012802D14FF4807000E050
:1008C0000020B0F5807F03D1208A401E4FEA0058F7
:1008D0002068C06A20F4700040EA08002168C862FD
:1008E0002068806811490840B04208D10020E062C9
:1008F000A06A20F0020040F00100A06211E0A06AAE
:1009000020F0020040F01000A062E06A40F0010018
:10091000E062012705E0FFE7A06A40F01000A06256
:10092000012738466BE70000FDF7E1FFFE0E1FFFD1
:1009300010B586B004460020029003900490059004
:1009400014492068884222D100BF1348806940F4CE
:100950000070114988610846806900F400700190B8
:1009600000BF00BF00BF0846806940F004008861F6
:100970000846806900F00400019000BF00BF80209D
:1009800002900320039002A9044800F075F906B014
:1009900010BD00000024014000100240000801408A
:1009A000F8B504460D46002600200090002700F010
:1009B00001FB06462068806800F4807050B1A06A90
:1009C00040F02000A06200BF002084F8240000BF97
:1009D0000120F8BD2068406800F4807020BB2068CA
:1009E000C06A00F47000F8B917E0681CA8B125B11E
:1009F00000F0E0FA801BA8420FD92068006800F0E0
:100A0000020050B9A06A40F00400A06200BF0020BC
:100A100084F8240000BF0320DBE72068006800F0B2
:100A200002000028E1D053E0022000F08BFB38499F
:100A30000968B1FBF0F021680969364A114091B9A3
:100A40002168C9689211114069B921680969324A5F
:100A5000114031B92168C9689211114009B91421B6
:100A600017E0292115E0216809692B4A114021B9B5
:100A70002168C9689211114041B121680969274A6A
:100A8000114029B92168C968114009B9542100E011
:100A9000FC2100FB01F718E0681C98B125B100F0BB
:100AA00089FA801BA8420DD90098B8420AD2A06AE0
:100AB00040F00400A06200BF002084F8240000BFC2
:100AC000032086E70098401C00900098B842E3D3CA
:100AD0006FF0120021680860A06A40F40070A06204
:100AE0002068806800F46020B0F5602F0DD1207B75
:100AF00058B9A06A20F48070A062A06A00F4805007
:100B000018B9A06A40F00100A062002061E700006F
:100B10000C00002024499224922449124992240076
:100B200070B50446002500BF94F82400012801D1C7
:100B3000022070BD012084F8240000BF2046FFF78A
:100B40004FFD0546002D77D1A06A40F20121884370
:100B500040F48070A0623C492068884208D13B483C
:100B6000006800F4702008B9012002E0002000E0D5
:100B7000012078B1A06A20F48010A062206840684B
:100B800000F4806000B3A06A20F4005040F480506C
:100B9000A06219E0A06A40F48010A0622B49091FEE
:100BA0002068884203D028492068884204D1274819
:100BB000006800F4806000E0002028B1A06A20F402
:100BC000005040F48050A062A06A00F4805020B130
:100BD000E06A20F00600E06201E00020E06200BF71
:100BE000002084F8240000BFC01E2168086020682F
:100BF000806800F46020B0F5602F16D1124920689B
:100C0000884208D11148006800F4702008B901201A
:100C100002E0002000E0012038B12068806840F444
:100C2000A000216888600CE006E02068806840F43D
:100C300080102168886004E000BF002084F8240050
:100C400000BF284675E70000002801400424014049
:100C500070B5044600F0AEF906462546681C10B192
:100C600004480078054400BF00F0A4F9801BA842A6
:100C7000FAD370BD080000202DE9F8470346002292
:100C800094466EE14FF0010808FA02F4D1F80080B2
:100C900008EA0400A0427DD1DFF8DCA2D1F804808C
:100CA000A8EB0A09D0453AD014DCB8F1030F50D0B4
:100CB00009DCB8F1000F31D0B8F1010F1CD0B8F148
:100CC000020F49D120E0B8F1110F18D0B8F1120F7E
:100CD00042D11EE0B9F5881F25D006DCB9F5803F6A
:100CE00020D0B9F5801F37D11AE0B9F5001F18D010
:100CF000B9F5041F30D117E0D1F80CC02DE0D1F8C0
:100D00000C8008F1040C28E0D1F80C8008F1080CE4
:100D100023E0D1F80C8008F10C0C1EE000BF00BFEE
:100D200000BF00BF00BF00BFD1F80880B8F1000FBE
:100D300002D14FF0040C0BE0D1F80880B8F1010F9C
:100D400003D14FF0080C1C6102E04FF0080C5C610D
:100D500003E04FF0000C00E000BF00BFFF2801D807
:100D6000984601E003F104084646FF2802D84FEAFE
:100D7000820803E0A2F108084FEA88084746D6F83F
:100D800000804FF00F0909FA07F928EA09080CFA60
:100D900007F900E088E048EA0908C6F80080D1F8C1
:100DA000048008F08058B8F1805F7DD100BFDFF883
:100DB000CC81D8F8188048F00108DFF8C091C9F854
:100DC0001880C846D8F8188008F00108CDF80080CF
:100DD00000BF00BF4FEAB9384FEA920958F82950CE
:100DE0004FEA82784FEA18794FF00F0808FA09F8AD
:100DF00025EA0805DFF88881434502D14FF0000855
:100E000016E0DFF88081434502D14FF001080FE082
:100E1000DFF87481434502D14FF0020808E0DFF8A3
:100E20006C81434502D14FF0030801E04FF0040804
:100E30004FEA82794FEA197908FA09F848EA050574
:100E4000DFF84C814FEA920948F82950D1F8048024
:100E500008F48038B8F5803F0AD1DFF83881D8F837
:100E6000008048EA0008DFF82C91C9F8008009E00A
:100E7000DFF82081D8F8008028EA0008DFF8149114
:100E8000C9F80080D1F8048008F40038B8F5003FB4
:100E900010D1DFF8008108F10408D8F8008048EA92
:100EA0000008DFF8F09000E05AE009F10409C9F801
:100EB00000800DE0DFF8DC8008F10408D8F800803D
:100EC00028EA0008DFF8CC9009F10409C9F800808D
:100ED000D1F8048008F48018B8F5801F0ED1DFF82F
:100EE000B48008F10808D8F8008048EA0008DFF864
:100EF000A49009F10809C9F800800DE0DFF894809A
:100F000008F10808D8F8008028EA0008DFF8849083
:100F100009F10809C9F80080D1F8048008F4001824
:100F2000B8F5001F0ED1DFF86C8008F10C08D8F876
:100F3000008048EA0008DFF85C9009F10C09C9F864
:100F400000800DE0DFF84C8008F10C08D8F8008034
:100F500028EA0008DFF83C9009F10C09C9F8008084
:100F6000521CD1F8008028FA02F8B8F1000F7FF483
:100F700089AEBDE8F88700000000111000100240A3
:100F800000080140000C0140001001400014014025
:100F90000800014000040140024693680B400BB179
:100FA000012000E0002070470AB1016101E00B045C
:100FB000036170470148006870470000000000208E
:100FC00003480068034909780844014908607047EC
:100FD000000000200800002010B50848006840F01C
:100FE000100006490860032000F098F8002000F087
:100FF00007F800F02BF8002010BD00000020024090
:1010000070B504460E4800784FF47A71B1FBF0F0E9
:101010000C490968B1FBF0F5284600F01FFD08B146
:10102000012070BD102C07D200222146501E00F076
:1010300037F80548046001E00120F2E70020F0E7FE
:10104000080000200C0000200400002008B500BFAC
:101050001148806940F001000F49886108468069A5
:1010600000F00100009000BF00BF00BF0846C0694B
:1010700040F08050C8610846C06900F08050009080
:1010800000BF00BF00BF0549486820F0E06040F0A5
:101090000070486000BF08BD001002400000014021
:1010A0002DE9F05F80460D461646002701F014FA40
:1010B000074639462A46334601F00700C0F1070AC1
:1010C000BAF1040F02D94FF0040A01E0C0F1070A97
:1010D000D14600F1040ABAF1070F02D24FF0000A1C
:1010E00001E0A0F1030AD4464FF0010A0AFA09FA16
:1010F000AAF1010A0AEA020A0AFA0CFA4FF0010BF5
:101100000BFA0CFBABF1010B0BEA030B4AEA0B04E5
:101110002146404601F0E8F9BDE8F09F00BF00F02D
:101120000702064B19684FF6FF031940044B0B43A7
:1011300043EA0221014B196000BF70470CED00E04B
:101140000000FA052DE9F04385B006463BA30FCB1E
:1011500001AC0FC43DA0006800904FF000080025CE
:1011600000270024A146012E30D0022E55D0102E8B
:101170005ED137484468006800F0807000B301A871
:10118000C4F38341475C04F4803070B13048406858
:10119000C0F340401DF8008004F4803040B12D4879
:1011A000B0FBF8F000FB07F502E02B4807FB00F569
:1011B0002748406800F48000B0F5800F01D1A946AF
:1011C00003E068000321B0FBF1F932E02048046A33
:1011D00004F44070B0F5807F05D104F0020010B136
:1011E0004FF4004918E004F44070B0F5007F07D1D7
:1011F0001748406A00F0020010B149F640490BE080
:1012000004F44070B0F5407F06D11148006800F446
:10121000003008B14FF224490BE000F093F90C497B
:101220004968C1F38131491C4900B0FBF1F900E084
:1012300000BF00BF484605B0BDE8F08302030405C7
:10124000060708090A0B0C0D0E0F10100102000012
:101250000010024000127A0000093D00F8B5044673
:1012600000260025207800F0010000286BD0002720
:101270004348C06900F0805070B900BF4048C06961
:1012800040F080503E49C8610846C06900F0805077
:10129000009000BF00BF01273A48006800F480704A
:1012A000B0B93848006840F4807036490860FFF7EC
:1012B00081FE064606E0FFF77DFE801B642801D90B
:1012C0000320F8BD2F48006800F480700028F2D099
:1012D0002B48006A00F440752DB3A08800F44070DC
:1012E000A84220D02648006A20F4407501202649F3
:1012F0000860002008602248056205F0010090B1F6
:10130000FFF758FE064608E0FFF754FE801B41F247
:101310008831884201D90320D3E71948006A00F0D8
:1013200002000028F0D01648006A20F4407061687E
:10133000084313490862012F04D10846C06920F010
:101340008050C86100BF207800F00200022807D159
:101350000B48406820F44040A168084308494860B1
:10136000207800F01000102807D10548406820F4CC
:101370008000E1680843024948600020A1E70000BE
:1013800000100240007000404004424270B5044624
:101390000D460CB9012070BD5A48006800F00700E6
:1013A000A8420ED25748006820F00700284355494C
:1013B00008600846006800F00700A84201D001203C
:1013C000E9E7207800F0020002281DD1207800F023
:1013D0000400042805D14C48406840F4E0604A49C4
:1013E0004860207800F00800082805D14648406889
:1013F00040F46050444948604348406820F0F000A1
:10140000A168084340494860207800F0010078B3A3
:101410006068012806D13C48006800F4003090B9AB
:101420000120B8E76068022806D13748006800F05C
:10143000007040B90120AEE73348006800F00200B8
:1014400008B90120A7E73048406820F00300616830
:1014500008432D494860FFF7ADFD064609E0FFF758
:10146000A9FD801B41F28831884202D9032092E70E
:1014700007E02548406800F00C006168B0EB810F80
:10148000EDD12048006800F00700A8420ED91D48A1
:10149000006820F0070028431A49086008460068E1
:1014A00000F00700A84201D0012074E7207800F086
:1014B0000400042807D11448406820F4E060E16883
:1014C000084311494860207800F00800082808D136
:1014D0000D48406820F46050216940EAC1000A4983
:1014E000486000F03FF808494968C1F30311074A12
:1014F000515CC8400649086006480068FFF780FD57
:10150000002048E70020024000100240D0260008DA
:101510000C00002004000020014800687047000013
:101520000C00002000B5FFF7F7FF04494968C1F33C
:101530000221034A515CC84000BD00000010024077
:10154000E026000800B5FFF7E7FF04494968C1F34A
:10155000C221034A515CC84000BD00000010024097
:10156000E0260008F0B585B00FF26C0C9CE8E010A6
:1015700001A8A0E8E0101CA52D680095002100221C
:10158000002300240020194D696801F00C05F5B115
:10159000042D02D0082D19D101E0154819E001AD44
:1015A000C1F38346AC5D01F4803555B10F4D6D68D4
:1015B000C5F340451DF805200D4D6543B5FBF2F31D
:1015C00002E00C4D04FB05F3184602E000BF08489A
:1015D00000BF00BF05B0F0BD0203040506070809FF
:1015E0000A0B0C0D0E0F101001020000001002403B
:1015F00000127A0000093D00F8B504460CB901203C
:10160000F8BD207800F00100002878D0F848406844
:1016100000F00C0004280CD0F548406800F00C00E5
:10162000082811D1F248406800F48030B0F5803FBE
:101630000AD1EF48006800F4003000285FD06068ED
:1016400000285CD10120DBE700BF6068B0F5803F77
:1016500006D1E748006840F48030E549086028E09A
:10166000606858B9E248006820F48030E0490860BA
:101670000846006820F4802008601AE06068B0F531
:10168000A02F0BD1DA48006840F48020D8490860C8
:101690000846006840F4803008600AE0D4480068DA
:1016A00020F48030D24908600846006820F4802089
:1016B000086000BF606888B1FFF77CFC054606E063
:1016C000FFF778FC401B642801D9032098E7C8483D
:1016D000006800F400300028F2D010E0FFF76AFC48
:1016E000054606E0FFF766FC401B642801D903208D
:1016F00086E7BF48006800F400300028F2D1207867
:1017000000F00200022857D1B948406800F00C00F0
:1017100050B1B748406800F00C00082818D1B44810
:10172000406800F4803098B9B148006800F00200C9
:1017300020B12069012801D0012061E7AC48006890
:1017400020F0F800616940EAC100A949086033E06F
:101750002069E8B10120A7490860FFF72BFC054686
:1017600006E0FFF727FC401B022801D9032047E7CA
:101770009F48006800F002000028F2D09C480068F2
:1017800020F0F800616940EAC1009949086013E05F
:10179000002098490860FFF70DFC054606E0FFF7BA
:1017A00009FC401B022801D9032029E79048006862
:1017B00000F002000028F2D1207800F0080008288C
:1017C0002DD1A069B8B101208B490860FFF7F2FB69
:1017D000054606E0FFF7EEFB401B022801D9032077
:1017E0000EE78348406A00F002000028F2D0012092
:1017F00000F034FD13E000207F490860FFF7DAFBBA
:10180000054606E0FFF7D6FB401B022801D903205E
:10181000F6E67748406A00F002000028F2D120780E
:1018200000F00400042873D100277148C06900F05B
:10183000805070B900BF6E48C06940F080506C495C
:10184000C8610846C06900F08050009000BF00BF2A
:1018500001276A48006800F48070B0B967480068E2
:1018600040F4807065490860FFF7A4FB054606E078
:10187000FFF7A0FB401B642801D90320C0E65F48A6
:10188000006800F480700028F2D000BFE0680128F2
:1018900006D15748006A40F001005549086227E028
:1018A000E06858B95248006A20F0010050490862C7
:1018B0000846006A20F00400086219E0E068052884
:1018C0000BD14B48006A40F00400494908620846C1
:1018D000006A40F0010008620AE04548006A20F012
:1018E0000100434908620846006A20F004000862CB
:1018F00000BFE068A0B1FFF75DFB054609E0FFF718
:1019000059FB401B41F28831884202D9032077E617
:1019100022E03748006A00F002000028EFD012E011
:10192000FFF748FB054608E0FFF744FB401B41F288
:101930008831884201D9032062E62D48006A00F010
:1019400002000028F0D1012F05D12948C06920F0FC
:1019500080502749C86100BFE069C8B32448406887
:1019600000F00C00082860D0E069022848D100206F
:1019700020490866FFF71EFB054606E0FFF71AFB45
:10198000401B022801D903203AE61948006800F0FC
:1019900000700028F2D1206AB0F5803F07D11448CA
:1019A000406820F40030A168084311494860D4E938
:1019B000080108430E49496821F4741108430C4991
:1019C000486001200B490866FFF7F4FA054607E076
:1019D0003DE0FFF7EFFA401B022801D903200FE694
:1019E0000348006800F000700028F2D02FE00000EB
:1019F0000010024000004242800442420070004059
:101A0000002014490866FFF7D5FA054606E0FFF7FF
:101A1000D1FA401B022801D90320F1E50E480068E5
:101A200000F000700028F2D111E0E069012800D137
:101A3000E6E50948466806F48031206A814204D10F
:101A400006F47011606A814201D00120D8E50020BF
:101A5000D6E50000000042420010024070B5044686
:101A60002546681EB0F1807F01D301200FE0681E7B
:101A70004FF0E02148610F214FF0FF3000F034FDBE
:101A800000204FF0E021886107200861002070BD30
:101A900010B504460CB9012010BDA06900B100E0EA
:101AA00000BF94F83D0028B9002084F83C0020468F
:101AB00000F028F8242084F83D002068C06820F455
:101AC00000502168C860204600F050FC2068006982
:101AD00020F49040216808612068406920F02A00C5
:101AE000216848612068C06840F400502168C860DF
:101AF00000202064202084F83D0084F83E0000206F
:101B0000CAE7000010B586B004460020029003909A
:101B1000049005901949206888422DD100BF1848CB
:101B2000C06940F400301649C8610846C06900F435
:101B30000030019000BF00BF00BF0846806940F040
:101B4000040088610846806900F00400019000BF2D
:101B500000BF04200290022003900320059002A9F8
:101B60000848FFF789F808200290002003900490AD
:101B700002A90448FFF780F806B010BD00440040F9
:101B800000100240000801402DE9F84F04460E46BF
:101B9000174699464FF0000A94F83D0020285AD184
:101BA00006B117B90120BDE8F88F00BF94F83C00DA
:101BB000012801D10220F6E7012084F83C0000BF93
:101BC00000202064212084F83D00FFF7F3F98246CD
:101BD000A784E784A068B0F5805F04D1206910B9BC
:101BE0000025B04602E035464FF0000800BF002057
:101BF00084F83C0000BF1BE05346002280212046B1
:101C0000CDF8009000F030FC08B10320CBE745B9D7
:101C1000B8F80000C0F308002168486008F1020825
:101C200003E02878216848606D1CE08C401EE08449
:101C3000E08C0028E0D15346002240212046CDF818
:101C4000009000F011FC08B10320ACE7202084F8DC
:101C50003D000020A7E70220A5E700BFFEE7000047
:101C600010B5012240210C48FFF79EF90122802186
:101C70000948FFF799F900F041F800224021064891
:101C8000FFF792F900F03AF8002280210248FFF7AE
:101C90008BF900F033F810BD000C014010B50022A4
:101CA00040210848FFF780F9012280210548FFF70D
:101CB0007BF900F023F8012240210248FFF774F974
:101CC00010BD0000000C014010B5012240210A485F
:101CD000FFF76AF900F012F8012280210648FFF7A9
:101CE00063F900F00BF8002280210348FFF75CF94C
:101CF00000F004F810BD0000000C01400A2000BFF5
:101D0000011EA0F10102D0B2FAD170470EB5002039
:101D10000090019002901248124908600021114879
:101D20008160017301754FF46021C16100200D498C
:101D3000486001210B480161FEF758FD08B1FEF72C
:101D40009AFC07200090012001900520029069462E
:101D50000448FEF793FC08B1FEF78DFC0EBD0000B1
:101D6000002401401000002000B585B00020019043
:101D700002900390049000BF2948806940F0200041
:101D8000274988610846806900F02000009000BF64
:101D900000BF00BF0846806940F004008861084623
:101DA000806900F00400009000BF00BF00BF08463B
:101DB000806940F0080088610846806900F00800EA
:101DC000009000BF00BF00224FF4E0711548FFF7FC
:101DD000EBF84FF480600190002002900220039005
:101DE00001A91148FEF748FF4FF4A07001900120AF
:101DF0000290002003900320049001A90948FEF7F7
:101E00003BFF8020019001200290022003900320DC
:101E1000049001A90348FEF72FFF05B000BD0000A4
:101E200000100240000C01400008014010B50B48B2
:101E30000B4908604FF4E130486000210848816098
:101E4000C16001610C21416100218161C161FFF725
:101E50001FFE08B1FEF70FFC10BD0000004400405B
:101E60004000002000BFFEE700BFFEE770B5002481
:101E70000CE0002506E00020074901EBC5010855EC
:101E8000681CC5B2802DF6DB601CC4B2082CF0DBE8
:101E900000F0D0F870BD00008400002010B50446AA
:101EA0001CB90021A62000F0BCF9012C03D10021AF
:101EB000A72000F0B6F910BD10B504463CB90021CA
:101EC000C82000F0AEF90021A12000F0AAF9012CF1
:101ED00007D10021C02000F0A4F90021A02000F0CB
:101EE000A0F910BDF0B514460B46CF1701EB57779C
:101EF000C7F3C702CF1701EB5777FF10A1EBC70756
:101F0000FEB20123B340DDB24CB1134B03EBC0036F
:101F10009B5C2B43104F07EBC007BB541AE00E4BE2
:101F200003EBC0039B5CDB430B4F07EBC007BB54C9
:101F3000094B03EBC0039B5C2B43074F07EBC00728
:101F4000BB54054B03EBC0039B5CDB43024F07EB29
:101F5000C007BB54F0BD00008400002010B5002174
:101F6000AE2000F05EF90021084600F05AF9002189
:101F7000102000F056F90021402000F052F9002115
:101F8000812000F04EF90021CF2000F04AF9002115
:101F9000A12000F046F90021C82000F042F90021FC
:101FA000A62000F03EF90021A82000F03AF9002117
:101FB0003F2000F036F90021D32000F032F9002153
:101FC000084600F02EF90021D52000F02AF9002162
:101FD000802000F026F90021D92000F022F900210C
:101FE000F12000F01EF90021DA2000F01AF900219A
:101FF000122000F016F90021DB2000F012F9002178
:10200000302000F00EF90021202000F00AF9002114
:10201000022000F006F900218D2000F002F90021D5
:10202000142000F0FEF8FFF721FF0021AF2000F0A0
:10203000F8F810BD70B500242BE004F1B001C8B26F
:10204000002100F0EEF80021084600F0EAF8002137
:10205000102000F0E6F8FFF703FE782000F014F9F6
:10206000FFF732FE402000F00FF9FFF72DFE0025AC
:1020700009E0094901EBC501085D00F005F9FFF72A
:1020800023FE681CC5B2802DF3DBFFF707FE601C42
:10209000C4B2082CD1DB70BD840000202DE9FE4FB6
:1020A0000746884692461C460197CDF80080082CCA
:1020B00002D14FF006091FE02046E31704EB5373EB
:1020C000DB1021464FEAE47C04EB5C7C4FEAEC0C2D
:1020D000A4EBCC0CBCF1000F02D04FF0010C01E0DE
:1020E0004FF0000C6344224604EBD27C4FEA6C0CA8
:1020F00003FB0CF303F0FF09AAF12000C6B2002590
:102100005EE0082C07D106EB46002F4901EB4000AA
:1021100010F805B01DE00C2C07D106EB46002B494A
:1021200001EB800010F805B013E0102C05D1284811
:1021300000EB061010F805B00BE0182C07D106EBE9
:10214000C600244901EB800010F805B001E0BDE8AD
:10215000FE8F002002901CE00BF0010028B14146E8
:1021600038460C9AFFF7BEFE09E00C9808B901202A
:1021700000E00020024641463846FFF7B3FE4FEA32
:102180006B0B08F1010000F0FF080298401CC0B280
:10219000029002980828DFDB781CC7B2082C0BD00D
:1021A00004EBD4714A100199791A8A4204D1019F33
:1021B00000980830C0B20090DDF80080681CC5B2FD
:1021C0004D459EDB00BFC2E7E82600081029000845
:1021D000842D0008743300082DE9F84106460F46A7
:1021E00014461D46DDF81C8013E0CDF800802278EF
:1021F0002B4639463046FFF751FF082D02D1B01D5E
:10220000C6B205E0284605EBD07106EB6101CEB2FF
:10221000641C2078202802DB20787E28E5DDBDE8DC
:10222000F88170B505460C46FFF71AFD782000F0DE
:102230002BF8FFF749FD1CB1402000F025F802E023
:10224000002000F021F8FFF73FFD284600F01CF8C1
:10225000FFF73AFDFFF722FD70BD704708B508494A
:102260000968C9084FF47A72B1FBF2F14143009159
:1022700000BF00BF00994A1E00920029F9D108BD95
:102280000C0000207047000070B5044600251FE0D8
:1022900004F0800028B1012240210F48FEF784FE9F
:1022A00004E0002240210C48FEF77EFEFFF726FDE9
:1022B000012280210848FEF777FEFFF71FFD00226C
:1022C00080210548FEF770FE6006040E681CC5B24A
:1022D000082DDDDB70BD0000000C014010B5FEF7DD
:1022E0006FFE10BD00B593B0282109A8FEF76FF866
:1022F000142104A8FEF76BF80020009001900290D2
:1023000003900120099000040A9000200B90012006
:102310000D9002201090C10311914FF4E011129121
:1023200009A8FFF769F908B1FEF7A5F90F20049095
:1023300002200590002006904FF480600790002056
:102340000890022104A8FFF721F808B1FEF793F9DD
:1023500002200090800302906846FEF77FFF08B1DC
:10236000FEF789F913B000BD7047000070B5044650
:102370002168096921F44051E26811432268116122
:102380002269A1681143626941EA02052168C968AE
:1023900041F20C62914329432268D1602168496966
:1023A00021F44071A2691143226851612D4A2168CC
:1023B000914202D1FFF7C6F801E0FFF7B3F800EB56
:1023C000C00101EB001162689200B1FBF2F100EB79
:1023D000C00202EB001263689B00B2FBF3F26423BD
:1023E000B2FBF3F202EBC20303EB0212A1EB820198
:1023F000322202EB01116422B1FBF2F101F0F00193
:1024000000EBC00202EB001263689B00B2FBF3F228
:102410006423B2FBF3F201EB021200EBC00101EB0B
:10242000001163689B00B1FBF3F100EBC00303EB09
:1024300000136668B600B3FBF6F36426B3FBF6F34D
:1024400003EBC30606EB0313A1EB8301322303EB7B
:1024500001116423B1FBF3F101F00F011144226873
:10246000916070BD003801402DE9F04104460D46F1
:1024700017469846069E21E0701CF8B12EB1FEF773
:1024800099FDA0EB0800B04218D92068C06820F47C
:10249000D0702168C8602068406920F00100216880
:1024A0004861202084F83D0084F83E0000BF0020F1
:1024B00084F83C0000BF0320BDE8F081206800687C
:1024C0002840A84201D1012000E00020B842D3D02A
:1024D0000020F1E700BFFEE702480068C0F30220D9
:1024E000704700000CED00E010B5002804DB0A077F
:1024F000130E054A135406E00A07140E034A00F0AF
:102500000F031B1FD45410BD00E400E018ED00E0E1
:1025100030380A2801D2012070470020704700009F
:1025200096B040F63407FEF757FDFFF7DBFEFFF7E6
:102530001BFCFFF7EBFBFFF779FC6420FEF788FB41
:10254000FFF70CFD0020FFF7A9FC0020FFF7B4FC0B
:10255000FFF78CFC0120102351A2002100900846B7
:10256000FFF73AFE0120102350A220210090002006
:10257000FFF732FE3A4651A102A8FDF729FE0120DD
:10258000102302AA302100900020FFF725FEFFF75C
:1025900051FD84E0002436E04948FEF7C1FA3221BB
:1025A0004748FEF7FDF94648FEF718F900F40070B9
:1025B00018B34348FEF715F985B2E8B28DF8040068
:1025C00028128DF805004FF47A73022201A93D48C4
:1025D000FFF7DAFA1CB907A820F8145011E0601EC2
:1025E00007A931F81000A84208DD601E31F810601C
:1025F00021F8105007A820F8146002E007A820F87E
:102600001450601CC4B21E2CC6DB45D10026002429
:1026100007E007A904F10A0031F810000644601C25
:10262000C4B20A2CF5DB0A20B6FBF0F6324623A131
:1026300002A8FDF7CDFD0120102302AA1946009043
:102640000020FFF7C9FDFFF7F5FC4FF480611E483D
:10265000FEF7A2FC90B1BDF830000A3887B23A46C6
:1026600016A102A8FDF7B4FD0120102302AA302113
:1026700000900020FFF7B0FDFFF7DCFCBE4206D261
:1026800000224FF480711148FEF78EFC04E0012215
:1026900011020E48FEF788FC4620FEF7D9FA79E7CA
:1026A0004164635F56616C75653A00004C696D6901
:1026B000745F56616C75653A000000002534640053
:1026C000100000204000002000080140000C0140E4
:1026D00000000000000000000102030406070809D2
:1026E00000000000010203040000000000000000E0
:1026F000002F000000000700070000147F147F1463
:1027000000242A7F2A1200626408132300364955E8
:10271000225000000503000000001C2241000000C0
:1027200041221C000014083E08140008083E080856
:10273000000000A0600000080808080800006060B1
:102740000000002010080402003E5149453E0000F0
:10275000427F4000004261514946002141454B31D2
:10276000001814127F10002745454539003C4A499E
:102770004930000171090503003649494936000610
:102780004949291E00003636000000005636000078
:1027900000081422410000141414141400004122F3
:1027A000140800020151090600324959513E007CCB
:1027B0001211127C007F49494936003E41414122B5
:1027C000007F4141221C007F49494941007F09099E
:1027D0000901003E4149497A007F0808087F00004E
:1027E000417F4100002040413F01007F0814224109
:1027F000007F40404040007F020C027F007F0408C1
:10280000107F003E4141413E007F09090906003E1C
:102810004151215E007F0919294600464949493145
:102820000001017F0101003F4040403F001F204068
:10283000201F003F4038403F006314081463000726
:102840000870080700615149454300007F4141007D
:1028500000552A552A55000041417F00000402011D
:1028600002040040404040400000010204000020FB
:1028700054545478007F4844443800384444442039
:1028800000384444487F00385454541800087E09E6
:1028900001020018A4A4A47C007F080404780000AE
:1028A000447D4000004080847D00007F102844006B
:1028B0000000417F4000007C04180478007C08047C
:1028C000047800384444443800FC242424180018B8
:1028D000242418FC007C08040408004854545420A4
:1028E00000043F444020003C4040207C001C20402D
:1028F000201C003C4030403C004428102844001C70
:10290000A0A0A07C004464544C4414141414141467
:102910000000000000000000000000000000FC00BB
:102920000000000002000000000C020C0200000089
:102930000000000090D0BCD0BC9000030003000059
:102940001824FE448C000302070201001824D8B0AA
:102950004C80000300010201C038E438E0000102AD
:102960000201020208060000000000000000000052
:10297000000000F80402000000010204000204F854
:1029800000000004020100009060F8609000000068
:10299000010000002020FC202000000001000000B9
:1029A0000000000000000806000000002020202099
:1029B00020000000000000000000000000000002F5
:1029C000000000000080601C020004030000000002
:1029D000F8040404F8000102020201000008FC00EF
:1029E00000000002030200001884442418000302BF
:1029F0000202020008042424D8000102020201009D
:102A000040B088FC80000000000302003C24242425
:102A1000C400010202020100F824242CC0000102BB
:102A2000020201000C04E41C04000000030000008A
:102A3000D8242424D800010202020100384444446E
:102A4000F800000302020100000010000000000076
:102A5000020000000000200000000000060000004E
:102A60000020508804020000000001029090909025
:102A700090000000000000000002048850200002C6
:102A8000010000001804C424180000000200000027
:102A9000F804E494F80001020202020000E09CF055
:102AA000800002030000030204FC2424D800020377
:102AB00002020100F80404040C00010202020100F9
:102AC00004FC0404F80002030202010004FC247464
:102AD0000C0002030202030004FC24740C00020335
:102AE00002000000F0080444CC4000010202010092
:102AF00004FC2020FC040203000003020404FC0484
:102B00000400020203020200000404FC04040604A0
:102B10000403000004FC24D00C040203020003029E
:102B200004FC04000000020302020203FC3CC03C5F
:102B3000FC0003000300030004FC30C4FC04020397
:102B400002000300F8040404F8000102020201007C
:102B500004FC24241800020302000000F88484040A
:102B6000F80001020207050004FC24649800020337
:102B700002000302182424448C0003020202010014
:102B80000C04FC040C0000020302000004FC000022
:102B9000FC04000102020100047C80E01C0400002F
:102BA000030000001CE03CE01C00000300030000E8
:102BB000049C609C0400020300030200041CE01C4F
:102BC00004000002030200000C84641C04000203E1
:102BD000020203000000FE020200000007040400DD
:102BE000000E30C00000000000010200000202FEE2
:102BF00000000004040700000004020400000000BC
:102C00000000000000000000000008080808080894
:102C10000000020000000000000000000040A0A032
:102C2000C00000010202030204FC2020C0000003D7
:102C30000202010000C02020600000010202020028
:102C400000C02024FC0000010202030200C0A0A07A
:102C5000C0000001020202000020F8242404000247
:102C6000030202000040A0A0602000070A0A0A0434
:102C700004FC2020C0000203020003020020E40044
:102C80000000000203020000000020E40000080829
:102C90000807000004FC80E0202002030200030279
:102CA0000404FC000000020203020200E020E02015
:102CB000C00003000300030020E02020C000020346
:102CC0000200030200C02020C00000010202010037
:102CD00020E02020C000080F0A02010000C02020D0
:102CE000E0000001020A0F0820E04020200002035B
:102CF000020000000060A0A0200000020202030009
:102D00000020F820000000000102020020E0002066
:102D1000E00000010202030220E0208060200000A9
:102D2000030100006080E0806000000300030000F9
:102D300020608060200002030003020020E0208069
:102D400060200808070100000020A06020000002A9
:102D500003020200000020DE020000000007040061
:102D6000000000FF00000000000F00000002DE2055
:102D70000000000407000000020102040402000039
:102D80000000000000000000000000000000000043
:102D900000000000000000F8000000000000003308
:102DA0003000000000100C06100C060000000000AF
:102DB0000000000040C07840C0784000043F040498
:102DC0003F040400007088FC08300000001820FF59
:102DD000211E0000F008F000E018000000211C0394
:102DE0001E211E0000F00888700000001E21232410
:102DF0001927211010160E0000000000000000002E
:102E000000000000000000E01804020000000007BD
:102E10001820400000020418E000000000402018C4
:102E200007000000404080F0804040000202010F97
:102E300001020200000000F0000000000101011F7B
:102E400001010100000000000000000080B07000DF
:102E5000000000000000000000000000000101016F
:102E600001010101000000000000000000303000FE
:102E700000000000000000008060180400601806D8
:102E80000100000000E010080810E000000F102012
:102E900020100F00001010F8000000000020203F5C
:102EA00020200000007008080888700000302824E6
:102EB0002221300000300888884830000018202087
:102EC00020110E000000C02010F8000000070424AC
:102ED000243F240000F808888808080000192120F1
:102EE00020110E0000E0108888180000000F11204B
:102EF00020110E0000380808C83808000000003F04
:102F0000000000000070880808887000001C222162
:102F100021221C0000E010080810E000000031220F
:102F200022110F00000000C0C000000000000030AF
:102F30003000000000000080000000000000806001
:102F40000000000000008040201008000001020482
:102F50000810200040404040404040000404040469
:102F60000404040000081020408000000020100825
:102F700004020100007048080808F000000000305A
:102F800036010000C030C828E810E00007182724E8
:102F900023140B000000C038E0000000203C230296
:102FA0000227382008F8888888700000203F2020F9
:102FB00020110E00C030080808083800071820202B
:102FC0002010080008F808080810E000203F202022
:102FD00020100F0008F88888E8081000203F202003
:102FE0002320180008F88888E8081000203F2000F7
:102FF00003000000C030080808380000071820202F
:10300000221E020008F808000008F808203F2101ED
:1030100001213F20000808F8080800000020203F98
:103020002020000000000808F8080800C080808008
:103030007F00000008F888C028180800203F200101
:103040002638200008F8080000000000203F20205B
:103050002020300008F8F800F8F80800203F003F72
:10306000003F200008F830C00008F808203F20008A
:1030700007183F00E01008080810E0000F1020209B
:1030800020100F0008F808080808F000203F210170
:1030900001010000E01008080810E0000F182424C7
:1030A00038504F0008F8888888887000203F20003A
:1030B000030C3020007088080808380000382021F0
:1030C00021221C00180808F8080818000000203FFA
:1030D0002000000008F808000008F808001F202061
:1030E00020201F000878880000C838080000073832
:1030F0000E010000F80800F80008F800033C070083
:10310000073C0300081868808068180820302C03EA
:10311000032C30200838C800C83808000000203FC1
:103120002000000010080808C838080020382621B0
:1031300020201800000000FE020202000000007FB4
:1031400040404000000C30C00000000000000001C2
:103150000638C00000020202FE00000000404040AD
:103160007F000000000004020202040000000000D2
:10317000000000000000000000000000808080804F
:103180008080808000020204000000000000000037
:1031900000000000000080808080000000192422D0
:1031A00022223F2008F8008080000000003F11200C
:1031B00020110E000000008080800000000E112011
:1031C00020201100000000808088F800000E1120EF
:1031D00020103F200000808080800000001F2222FD
:1031E00022221300008080F0888888180020203F69
:1031F000202000000000808080808000006B94947C
:103200009493600008F8008080800000203F210037
:1032100000203F2000809898000000000020203F00
:1032200020200000000000809898000000C08080EE
:10323000807F000008F8000080808000203F24028A
:103240002D302000000808F8000000000020203F7A
:10325000202000008080808080808000203F20002F
:103260003F20003F8080008080800000203F2100C0
:1032700000203F200000808080800000001F202070
:1032800020201F00808000808000000080FFA1209F
:1032900020110E000000008080808000000E1120B0
:1032A00020A0FF80808080008080800020203F213F
:1032B00020000100000080808080800000332424F2
:1032C00024241900008080E0808000000000001F9E
:1032D000202000008080000000808000001F20204F
:1032E00020103F20808080000080808000010E3010
:1032F0000806010080800080008080800F300C0371
:103300000C300F0000808000808080000020312E73
:103310000E312000808080000080808080818E704F
:103320001806010000808080808080000021302C01
:103330002221300000000000807C0202000000001A
:10334000003F404000000000FF00000000000000BF
:10335000FF0000000002027C800000000040403FAF
:103360000000000000060101020204040000000049
:10337000000000000000000000000000000000004D
:10338000000000000000000000000000000000003D
:1033900000000000000000000000000000F0F0F05D
:1033A000000000000000000000017F01000000009C
:1033B00000000000001C1C1C0000000000008060D9
:1033C000301C8C60301C0C0000000000000000006D
:1033D00000000000000000000000000000000000ED
:1033E000000000E00000000000E000000086E69F12
:1033F00086868686E69F860000011F010101010185
:103400001F010100000080C06020F820E0C0000023
:10341000000003070C18FF70E18100000000070F97
:1034200010107F100F0700008060206080000000F7
:10343000E02000000F3020309F70DC371030C000DB
:103440000000100E03000718101807000000C0202D
:1034500020E0C0000000000080E01F38E88703C4BF
:103460003C040000070F1810100B070D1010080087
:1034700000808C4C380000000000000000000000BC
:10348000000000000000000000000000000000003C
:103490000000000000000000000080E03008040090
:1034A0000000000000FEFF0100000000000000001E
:1034B0000000030F1820400000040830E0800000E6
:1034C000000000000000000001FFFE0000000000FE
:1034D000004020180F030000000000000000000062
:1034E0000000C00000000000004266663C18FF18A3
:1034F0003C6666420000000000000300000000007F
:10350000000000000000800000000000001010100B
:103510001010FF1010101010000000000000030039
:10352000000000000000000000000000000000009B
:1035300000000000000000000000000000808C4C33
:103540003800000000000000000000000000000043
:1035500000000000001010101010101010101000CB
:10356000000000000000000000000000000000005B
:10357000000000000000000000000000000000004B
:103580000000000000001C1C1C00000000000000E7
:103590000000000000000000E0380C000000000007
:1035A00080701C03000000000060380E0100000065
:1035B00000000000000080C060202060C08000008B
:1035C00000FEFF010000000001FFFE000001070EE9
:1035D000181010180E0701000000808080C0E00065
:1035E000000000000000000000FFFF0000000000DD
:1035F00000001010101F1F1010100000008040204D
:1036000020202060C080000000030300804020389C
:103610001F070000001C1A1918181818181F00009E
:103620000080C020202060C0800000000003030054
:103630001010182FE780000000070F10101010184E
:103640000F070000000000000000C0E0F0000000D4
:1036500000C0B088868180FFFF80800000000000ED
:103660000010101F1F1010000000E060606060601C
:103670006060000000003F1008080818F0E000003B
:1036800000070B101010101C0F030000000080C07A
:1036900040202020E0C0000000FCFF2110080808A6
:1036A00018F0E0000001070C18101010080F0300BC
:1036B0000000C0E06060606060E060000000030047
:1036C0000000E0180700000000000000001F1F00BD
:1036D000000000000080C0602020202060C080002A
:1036E0000087EF2C1818303068CF830000070F08D0
:1036F00010101010180F07000000C0C0202020205C
:10370000C0800000001F3F604040402010FFFE00CE
:1037100000000C1C101010080F0300000000000037
:10372000000000000000000000000000000E0E0E6F
:103730000000000000000000001C1C1C0000000035
:103740000000000000000000000000000000000079
:10375000000C0C00000000000000000000583800C1
:103760000000000000000000000000804020100069
:10377000000010284482010000000000000000004A
:10378000000001020408100000000000000000001A
:103790000000000000848484848484848484840001
:1037A00000000000000000000000000000001020E9
:1037B00040800000000000000000000000000182C6
:1037C000442810000000100804020100000000005E
:1037D00000C020201010101030E0C00000030300D3
:1037E00000F010080C070300000000001C1C1C0067
:1037F00000000000000000C0406020202040C00009
:1038000000FCFF01F00E03C1FE03807F0001070EE4
:1038100008111110110904020000000080E0E0000E
:10382000000000000000807C4340477FF8800000DB
:1038300010181F1000000000131F1C1020E0E020D3
:1038400020202060C080000000FFFF101010101822
:103850002FE78000101F1F1010101010180F070006
:10386000000080C0402020202060E00000FCFF011C
:1038700000000000000001000001070E18101010E9
:103880000804030020E0E02020202040C080000049
:1038900000FFFF000000000001FFFE00101F1F10CE
:1038A000101018080E07010020E0E0202020202042
:1038B0002060800000FFFF101010107C000000004E
:1038C000101F1F10101010101018060020E0E0202C
:1038D000202020206060800000FFFF101010107C6E
:1038E00000000100101F1F10000000000000000079
:1038F000000080C06020202040E0000000FCFF01AC
:1039000000004040C0C140400001070E18101010D8
:103910000F0F000020E0E0200000000020E0E02089
:1039200000FFFF101010101010FFFF00101F1F10DD
:1039300000000000101F1F100000202020E0E020E9
:10394000202000000000000000FFFF000000000039
:1039500000001010101F1F101010000000000000C9
:10396000202020E0E020202000000000000000FFD8
:10397000FF0000000060E0808080C07F3F0000000A
:1039800020E0E020000020A06020200000FFFF30A9
:10399000187CE3C000000000101F1F10000001137E
:1039A0001F1C181020E0E0200000000000000000B4
:1039B00000FFFF000000000000000000101F1F10AB
:1039C000101010101018060020E0E0E000000000C9
:1039D000E0E0E02000FF013FFEC0E01E01FFFF002D
:1039E000101F1000031F0300101F1F1020E0E0C075
:1039F000000000000020E02000FF0003071C78E02A
:103A00008000FF00101F100000000000030F1F00C7
:103A1000000080C060202060C080000000FEFF0128
:103A20000000000000FFFE000001070E1810101833
:103A30000C07010020E0E0202020202060C0800052
:103A400000FFFF2020202020301F0F00101F1F101C
:103A50000000000000000000000080C06020206026
:103A6000C080000000FEFF010000000000FFFE001B
:103A70000001070E1111133C7C67210020E0E020BB
:103A80002020202060C0800000FFFF101030F0D008
:103A9000080F0700101F1F10000000030F1C10105C
:103AA0000080C060202020204040E00000070F0C74
:103AB0001818303060E08100001F0C081010101042
:103AC000180F07008060202020E0E0202020608088
:103AD0000100000000FFFF000000000100000000E6
:103AE000101F1F100000000020E0E0200000000078
:103AF0000020E02000FFFF00000000000000FF00A9
:103B000000070F1810101010100807002060E0E0E8
:103B10002000000020E060200000077FF880008087
:103B20007C03000000000000071F1C0700000000CD
:103B300020E0E02000E0E0200020E0200007FFF887
:103B4000E01FFFFCE01F00000000031F0300011F37
:103B500003000000002060E0A0000020E0602000E2
:103B6000000000038F7CF8C6010000000010181E42
:103B7000130001171F1810002060E0E02000000073
:103B800020E06020000001073EF8E0180700000078
:103B900000000010101F1F101000000000806020A7
:103BA000202020A0E0E0200000000000C0F03E0F38
:103BB0000300000000101C1F171010101018060042
:103BC0000000000000FC04040404040000000000E5
:103BD00000FF00000000000000000000007F4040E7
:103BE00040404000000010E0000000000000000025
:103BF00000000000031C60800000000000000000C6
:103C0000000000030C70800000000404040404FCA5
:103C10000000000000000000000000FF00000000A5
:103C2000000040404040407F0000000000000010C5
:103C3000080C040C08100000000000000000000048
:103C40000000000000000000000000000000000074
:103C50000000000000000000000000000000000064
:103C60000000000000000000808080808080808054
:103C7000808080800000000404080800000000002C
:103C80000000000000000000000000000000000034
:103C90000000000000000000000000000000000024
:103CA00000000000000098D844642424FCF80000C0
:103CB000000F1F18101010081F1F10180020E0F030
:103CC00000000000000000000000FFFF18080404CE
:103CD0000CF8F00000001F0F18101010180F030050
:103CE00000000000000000000000000000E0F818E4
:103CF0000404043C3800000000030F0C10101010E6
:103D0000080600000000000000000020E0F00000B5
:103D100000E0F81C04040408FFFF000000030F1873
:103D2000101010081F0F0800000000000000000025
:103D3000000000000000E0F8484444444C78700063
:103D40000000030F0C181010100804000000000001
:103D500080C0602020E0C00000040404FFFF0404D1
:103D600004040000000010101F1F101010000000BD
:103D7000000000000000000000000000000070F8DB
:103D80008C04048CF874040C007076CF8D8D8D89B2
:103D9000C87870000020E0F0000000000000000083
:103DA0000000FFFF08040404FCF8000000101F1FBF
:103DB000100000101F1F10000000000000606000D5
:103DC000000000000000040404FCFC0000000000EF
:103DD00000001010101F1F10101000000000000045
:103DE000000000606000000000000000040404FC0B
:103DF000FC0000000000C0C08080C07F3F000000C9
:103E00000020E0F000000000000000000000FFFFC4
:103E100080C0F41C0404000000101F1F1100031FC9
:103E20001C1010000000202020E0F0000000000026
:103E30000000000000FFFF00000000000000101064
:103E4000101F1F10101000000000000000000000F4
:103E50000000000004FCFC0804FCFC0804FCFC005E
:103E6000101F1F10001F1F10001F1F100000000058
:103E700000000000000000000004FCFC080804042E
:103E8000FCF8000000101F1F100000101F1F100082
:103E900000000000000000000000000000E0F0183A
:103EA0000C04040C18F0E00000030F0C10101010AC
:103EB0000C0F0300000000000000000000000000E4
:103EC0000004FCFC080404040CF8F0000080FFFF70
:103ED000889010101C0F030000000000000000007C
:103EE0000000000000E0F81C04040408F8FC0000D6
:103EF00000030F1810109088FFFF800000000000E2
:103F00000000000000000000040404FCFC10080491
:103F1000040C0C001010101F1F10101000000000E7
:103F200000000000000000000000000000003078E9
:103F3000CCC48484840C1C0000001E1810101011C6
:103F4000190F06000000000000C000000000000083
:103F500000040404FFFF040404000000000000004B
:103F60000F1F1010100C00000000000000000000E7
:103F7000000000000004FCFE00000004FCFE000045
:103F800000000F1F181010081F0F0800000000008D
:103F9000000000000000000000040C3CFCC4000015
:103FA000C43C0C0400000000010F1E0E01000000C4
:103FB000000000000000000000000000043CFCC401
:103FC00000E47CFC84807C040000071F07000007DD
:103FD0001F070000000000000000000000000000BB
:103FE0000004041C7CE4C0341C0404000010101CF9
:103FF0001601131F1C181000000000000000000034
:104000000000000000040C3CFCC400C43C0404009C
:104010000000C080C1370E01000000000000000059
:10402000000000000000000000001C0404C4F47C38
:104030001C0400000000101C1F17111010180E00A7
:1040400000000000000000F80C0400000000000068
:10405000001028EF00000000000000000000003FFA
:1040600060400000000000000000FF0000000000B1
:10407000000000000000FF00000000000000000041
:104080000000FF00000000000000040CF800000029
:104090000000000000000000EF28100000000000F9
:1040A000000040603F000000000000000018060211
:1040B000020408102020300800000000000000006A
:1040C00000000000000000000000000000000000F0
:1040D00000FC848484FC001010101010FF101000ED
:1040E000003F1010103F0000010640807F000000DC
:1040F00000F8010600F0121212F2020202FE0000A5
:1041000000FF0000001F1111111F0040807F000000
:10411000000000000000000000000000000000009F
:104120000000363600000000000000000000000023
:104130000000FC04040414155694543414040400C0
:1041400040300F0001010141817F010101050300A1
:10415000808080BEA2A2A2A2A2A2A2BE8080800075
:1041600000000006050404044484443C00000000F0
:10417000000000000000000000000000000000003F
:1041800000003636000000000000000000000000C3
:10419000000000C080808080808080FC84808080DF
:1041A000808080C0C0000000000000FF7F404040D1
:1041B000404040FF40404040404040FF7F00000002
:1041C00000000000000000000000007F7000000000
:1041D00000000000000000000000000000000000DF
:1041E00000000000000000FCF800000000000000DB
:1041F000000000000000000000000000FFFE0202BE
:1042000002020202020202FFFF0202020202020294
:104210000202FF0300000000000000001F1F040452
:1042200004040404040404FFFF0404040404040458
:1042300004041F0000000000000000000000000057
:10424000000000000000007F3F00000000000000B0
:10425000000000000000000000000000000000005E
:10426000000000000000000000000000000000004E
:104270000000000000F8F8F0F070200000000000DE
:10428000000000000000000000000000000000002E
:10429000000000000000000000000000000000001E
:1042A000800000000000000000000000000000008E
:1042B0000000000000FFFFFFFF0000000000000002
:1042C00000000000000000000000000080800000EE
:1042D00000000000000000000000000000000000DE
:1042E00000FFFFFE0606060606060606060606068A
:1042F0000606060606FFFFFFFF060606060606067A
:104300000606060606060606060606FFFFFFFF0768
:10431000020000000000000000000000000000009B
:1043200000FFFFFF00000000000000000000000090
:104330000000000000FFFFFFFF0000000000000081
:104340000000000000000000000000FFFFFFFF0071
:10435000000000000000000000000000000000005D
:1043600000FFFFFF18181818181818181818181830
:104370001818181818FFFFFFFF1818181818181821
:104380001818181818181818181818FFFFFFFF0029
:10439000000000000000000000000000000000001D
:1043A0000201010000000000000000000000000009
:1043B0000000000000FFFFFFFF0000000000000001
:1043C00000000000000000000000000101000000EB
:1043D00000000000000000000000000000000000DD
:1043E00000000000000000000000000000000000CD
:1043F0000000000000FFFFFFFF00000000000000C1
:1044000000000000000000000000000000000000AC
:10441000000000000000000000000000000000009C
:10442000000000000000000000000000000000008C
:1044300000000000001F1F0F0F0000000000000020
:10444000000000000000000000000000000000006C
:104450000000000000000000784400080000002078
:104460001000000028010008884400081000002007
:10447000580B00004401000800000000100000007C
:08448000010000000024F4001B
:04000005080000ED02
:00000001FF
