:020000040800F2
:10000000600600206D010008650500080D05000868
:1000100061050008270200084D07000800000000E5
:10002000000000000000000000000000FD050008C6
:100030002B02000800000000D9050008E9060008AE
:100040008701000887010008870100088701000870
:100050008701000887010008870100087502000871
:100060008701000887010008870100088701000850
:100070008701000887010008870100088701000840
:100080008701000887010008870100088701000830
:100090008701000887010008870100088701000820
:1000A0008701000887010008870100088701000810
:1000B0008701000887010008870100088701000800
:1000C00087010008870100088701000887010008F0
:1000D00087010008870100088701000887010008E0
:1000E00087010008870100088701000800F002F876
:1000F00000F02CF80AA090E8000C82448344AAF196
:100100000107DA4501D100F021F8AFF2090EBAE893
:100110000F0013F0010F18BFFB1A43F0010318473B
:10012000C0060000D00600000023002400250026A1
:10013000103A28BF78C1FBD8520728BF30C148BF4A
:100140000B6070471FB51FBD10B510BD00F031F832
:100150001146FFF7F7FF00F0FBFA00F04FF803B489
:10016000FFF7F2FF03BC00F057F800000948804792
:1001700009480047FEE7FEE7FEE7FEE7FEE7FEE789
:10018000FEE7FEE7FEE7FEE704480549054A064BA1
:1001900070470000ED060008ED0000086000002038
:1001A0006006002060020020600200207047704757
:1001B0007047754600F02CF8AE4605006946534678
:1001C00020F00700854618B020B5FFF7DDFFBDE839
:1001D00020404FF000064FF000074FF000084FF0AE
:1001E000000B21F00701AC46ACE8C009ACE8C0093F
:1001F000ACE8C009ACE8C0098D46704710B50446AC
:10020000AFF300802046BDE81040FFF7A8BF000014
:10021000004870470000002001491820ABBEFEE7EF
:1002200026000200704700BFFEE7704700B5034696
:1002300003E04FF47A7000F005F8181EA3F10103F3
:10024000F7D100BD00EBC001C9004FF0E0225161C1
:10025000002191610521116100BF4FF0E021096982
:1002600001F480310029F8D004214FF0E02211611F
:100270007047000010B50A20FFF7D8FF02210A4896
:1002800000F037F9002408E00F21084800F03AF99F
:1002900042F21070FFF7CAFF641C042CF4DB02204A
:1002A00000F02CF810BD0000000C014000080140D7
:1002B0000EB500F02DF90121084600F06FF802207C
:1002C000019000208DF808000C208DF80900012015
:1002D0008DF80A0001A800F017F807208DF800003B
:1002E00002208DF8010003208DF8020001208DF816
:1002F0000300684600F038F90EBD000001490860AF
:100300007047000014040140002123498279002A2B
:100310003AD00A46126803689A430B461A600A1DCF
:10032000126803689A430B1D1A60027911440A6827
:1003300003681A430A60184A0832126803689A432D
:10034000154B08331A601A1D126803689A43124B42
:100350000C331A604279102A0ED11A1F12680368F2
:100360001A430D4B08331A601A1D126803681A43AA
:10037000094B0C331A600DE00749427911440A68B1
:1003800003681A430A6005E0027911440A680368A9
:100390009A430A60704700000004014030B5002213
:1003A0008B071C0F0F2303FA04F20B4B8C1053F82E
:1003B00024309343084C8D1044F8253023468C108C
:1003C00053F824308C07240F00FA04F42343024C22
:1003D0008D1044F8253030BD080001402DE9F04172
:1003E000024600250026002000230024002791F863
:1003F00003C00CF00F0591F803C00CF0100CBCF119
:10040000000F03D091F802C04CEA050591F800C036
:10041000BCF1000F31D0146800202BE04FF0010C2C
:100420000CFA00F3B1F800C00CEA03069E4220D19A
:1004300083004FF00F0C0CFA03F7BC4305FA03FCE2
:100440004CEA040491F803C0BCF1280F06D14FF028
:10045000010C0CFA00FCC2F814C00AE091F803C0C9
:10046000BCF1480F05D14FF0010C0CFA00FCC2F8AA
:1004700010C0401C0828D1D31460B1F800C0BCF1F2
:10048000FF0F34DD546800202EE000F1080C4FF01F
:10049000010808FA0CF3B1F800C00CEA03069E420A
:1004A00021D183004FF00F0C0CFA03F7BC4305FA7F
:1004B00003FC4CEA040491F803C0BCF1280F05D1F9
:1004C00000F1080C08FA0CF8C2F8148091F803C087
:1004D000BCF1480F07D100F1080C4FF0010808FAF1
:1004E0000CF8C2F81080401C0828CED35460BDE838
:1004F000F0810246002093680B400BB1012000E020
:1005000000207047416170470161704700BFFEE7FE
:1005100008B50121082000F061F80220ADF80000C4
:1005200048208DF8030069460148FFF757FF08BDD2
:10053000000C014008B50121042000F04FF80F2005
:10054000ADF8000010208DF8030003208DF80200A4
:1005500069460248FFF742FF08BD0000000801405D
:1005600000BFFEE77047000070B5002100230F2296
:10057000C47804B3154C246804F4E064C4F5E06462
:10058000210AC1F10403CA40447804FA03F18478D3
:100590001440214309010E4C0678A155047804F05B
:1005A0001F050124AC4005786D11AD0005F1E02573
:1005B000C5F8004109E0047804F01F050124AC40AF
:1005C000044D0678761145F8264070BD0CED00E02C
:1005D00000E400E080E100E07047000029B1064A35
:1005E00092690243044B9A6104E0034A9269824390
:1005F000014B9A617047000000100240704710B52F
:1006000000F002F810BD00000CB500200190009031
:100610003348006840F480303149086000BF3048FA
:10062000006800F4003000900198401C0190009890
:1006300018B90198B0F5A06FF1D12948006800F40D
:10064000003010B10120009001E0002000900098DF
:10065000012843D12348006840F010002149086078
:100660000846006820F0030008600846006840F073
:10067000020008601A484068194948600846406806
:1006800048600846406840F480604860084640681A
:1006900020F47C1048600846406840F4E810486048
:1006A0000846006840F08070086000BF0C48006891
:1006B00000F000700028F9D00948406820F00300DD
:1006C000074948600846406840F00200486000BFA3
:1006D0000348406800F00C000828F9D10CBD000068
:1006E00000100240002002407047000010B513487F
:1006F000006840F001001149086008464068104950
:1007000008400E494860084600680E4908400B49F9
:1007100008600846006820F48020086008464068A9
:1007200020F4FE0048604FF41F008860FFF767FF69
:100730004FF000600449086010BD00000010024046
:100740000000FFF8FFFFF6FE08ED00E000BFFEE747
:10075000FFF7AEFDFFF7EEFE3FE00F211F48FFF76A
:10076000D3FE42F21070FFF761FD01211B48FFF735
:10077000C9FE42F21070FFF759FD0F211748FFF72D
:10078000C3FE42F21070FFF751FD02211348FFF73C
:10079000B9FE42F21070FFF749FD0F210F48FFF735
:1007A000B3FE42F21070FFF741FD04210B48FFF742
:1007B000A9FE42F21070FFF739FD0F210748FFF73D
:1007C000A3FE42F21070FFF731FD08210348FFF746
:1007D00099FE42F21070FFF729FDBEE700080140C4
:1007E000F007000800000020600600002801000853
:040000050800016D81
:00000001FF
